{
  "contractName": "OwokanSale",
  "abi": [
    {
      "constant": true,
      "inputs": [],
      "name": "tokenSold",
      "outputs": [
        {
          "name": "",
          "type": "uint256"
        }
      ],
      "payable": false,
      "stateMutability": "view",
      "type": "function"
    },
    {
      "constant": true,
      "inputs": [],
      "name": "tokenContract",
      "outputs": [
        {
          "name": "",
          "type": "address"
        }
      ],
      "payable": false,
      "stateMutability": "view",
      "type": "function"
    },
    {
      "constant": true,
      "inputs": [],
      "name": "tokenPrice",
      "outputs": [
        {
          "name": "",
          "type": "uint256"
        }
      ],
      "payable": false,
      "stateMutability": "view",
      "type": "function"
    },
    {
      "inputs": [
        {
          "name": "_tokenContract",
          "type": "address"
        },
        {
          "name": "_tokenPrice",
          "type": "uint256"
        }
      ],
      "payable": false,
      "stateMutability": "nonpayable",
      "type": "constructor"
    },
    {
      "anonymous": false,
      "inputs": [
        {
          "indexed": false,
          "name": "_buyer",
          "type": "address"
        },
        {
          "indexed": false,
          "name": "_amount",
          "type": "uint256"
        }
      ],
      "name": "Sell",
      "type": "event"
    },
    {
      "constant": false,
      "inputs": [
        {
          "name": "_numberOfTokens",
          "type": "uint256"
        }
      ],
      "name": "buyTokens",
      "outputs": [],
      "payable": true,
      "stateMutability": "payable",
      "type": "function"
    }
  ],
  "bytecode": "0x608060405234801561001057600080fd5b5060405160408061055a8339810180604052604081101561003057600080fd5b810190808051906020019092919080519060200190929190505050336000806101000a81548173ffffffffffffffffffffffffffffffffffffffff021916908373ffffffffffffffffffffffffffffffffffffffff16021790555081600160006101000a81548173ffffffffffffffffffffffffffffffffffffffff021916908373ffffffffffffffffffffffffffffffffffffffff160217905550806002819055505050610476806100e46000396000f3fe608060405260043610610062576000357c0100000000000000000000000000000000000000000000000000000000900463ffffffff1680633610724e14610067578063519ee19e1461009557806355a373d6146100c05780637ff9b59614610117575b600080fd5b6100936004803603602081101561007d57600080fd5b8101908080359060200190929190505050610142565b005b3480156100a157600080fd5b506100aa6103e8565b6040518082815260200191505060405180910390f35b3480156100cc57600080fd5b506100d56103ee565b604051808273ffffffffffffffffffffffffffffffffffffffff1673ffffffffffffffffffffffffffffffffffffffff16815260200191505060405180910390f35b34801561012357600080fd5b5061012c610414565b6040518082815260200191505060405180910390f35b61014e8160025461041a565b3414151561015b57600080fd5b80600160009054906101000a900473ffffffffffffffffffffffffffffffffffffffff1673ffffffffffffffffffffffffffffffffffffffff166370a08231306040518263ffffffff167c0100000000000000000000000000000000000000000000000000000000028152600401808273ffffffffffffffffffffffffffffffffffffffff1673ffffffffffffffffffffffffffffffffffffffff16815260200191505060206040518083038186803b15801561021757600080fd5b505afa15801561022b573d6000803e3d6000fd5b505050506040513d602081101561024157600080fd5b81019080805190602001909291905050501015151561025f57600080fd5b600160009054906101000a900473ffffffffffffffffffffffffffffffffffffffff1673ffffffffffffffffffffffffffffffffffffffff1663a9059cbb33836040518363ffffffff167c0100000000000000000000000000000000000000000000000000000000028152600401808373ffffffffffffffffffffffffffffffffffffffff1673ffffffffffffffffffffffffffffffffffffffff16815260200182815260200192505050602060405180830381600087803b15801561032457600080fd5b505af1158015610338573d6000803e3d6000fd5b505050506040513d602081101561034e57600080fd5b8101908080519060200190929190505050151561036a57600080fd5b806003600082825401925050819055507f5e5e995ce3133561afceaa51a9a154d5db228cd7525d34df5185582c18d3df093382604051808373ffffffffffffffffffffffffffffffffffffffff1673ffffffffffffffffffffffffffffffffffffffff1681526020018281526020019250505060405180910390a150565b60035481565b600160009054906101000a900473ffffffffffffffffffffffffffffffffffffffff1681565b60025481565b6000808214806104395750828283850292508281151561043657fe5b04145b151561044457600080fd5b9291505056fea165627a7a723058209b24e3f12de5edeb039392af44e2399a11e612124729820debd7bb6a54c033f60029",
  "source": "pragma solidity ^0.5.0;\n\nimport \"./Owokan.sol\";\n\ncontract OwokanSale {\n    // provide token to token sale contract\n    // end sale\n\n    address admin;\n    Owokan public tokenContract;\n    uint256 public tokenPrice;\n\n    // token solidity\n    uint256 public tokenSold;\n\n    // sell event\n    event Sell(address _buyer, uint256 _amount);\n\n\n    constructor(Owokan _tokenContract, uint256 _tokenPrice) public {\n        admin = msg.sender;\n        tokenContract = _tokenContract;\n        tokenPrice = _tokenPrice;\n    }\n\n    // multiply numberOfTokens and tokenPrice\n    /*DS_Math:\n\n        function mul(uint x, uint y) internal pure returns (uint z) {\n            require(y == 0 || (z = x * y) / y == x,                 \"ds-math-mul-overflow\");\n        }*/\n    function multiply(uint x, uint y) internal pure returns (uint z) {\n        require(y == 0 || (z = x * y) / y == x);\n    }\n\n    // buy tokens\n    function buyTokens(uint256 _numberOfTokens) public payable {\n        // require the value is equal to tokens\n        require(msg.value == multiply(_numberOfTokens, tokenPrice));\n\n        // require contract has enough tokens available\n        // use this to referece this contrat\n        // it returns owokanSale contract address\n        /* address myAddress = address(this); */\n        require(tokenContract.balanceOf(address(this)) >= _numberOfTokens);\n\n        // require a transfer is successful\n        require(tokenContract.transfer(msg.sender, _numberOfTokens));\n\n        // track number of tokens sold\n        tokenSold += _numberOfTokens;\n\n        // trigget a sell event\n        emit Sell(msg.sender, _numberOfTokens);\n    }\n}\n",
  "sourcePath": "/home/qp/atomProjects/owokan/contracts/OwokanSale.sol",
  "compiler": {
    "name": "solc",
    "version": "0.5.0+commit.1d4f565a.Emscripten.clang"
  },
  "schemaVersion": "3.0.9",
  "updatedAt": "2019-06-04T12:29:10.697Z",
  "devdoc": {
    "methods": {}
  },
  "userdoc": {
    "methods": {}
  }
}